{
  "contractName": "SimpleStorage",
  "abi": [
    {
      "constant": true,
      "inputs": [
        {
          "internalType": "uint256",
          "name": "",
          "type": "uint256"
        }
      ],
      "name": "files",
      "outputs": [
        {
          "internalType": "bytes32",
          "name": "",
          "type": "bytes32"
        }
      ],
      "payable": false,
      "stateMutability": "view",
      "type": "function"
    },
    {
      "constant": false,
      "inputs": [
        {
          "internalType": "uint256",
          "name": "file_name",
          "type": "uint256"
        },
        {
          "internalType": "string",
          "name": "text",
          "type": "string"
        }
      ],
      "name": "set",
      "outputs": [],
      "payable": false,
      "stateMutability": "nonpayable",
      "type": "function"
    },
    {
      "constant": true,
      "inputs": [
        {
          "internalType": "uint256",
          "name": "file_name",
          "type": "uint256"
        }
      ],
      "name": "get",
      "outputs": [
        {
          "internalType": "bytes32",
          "name": "",
          "type": "bytes32"
        }
      ],
      "payable": false,
      "stateMutability": "view",
      "type": "function"
    }
  ],
  "bytecode": "0x608060405234801561001057600080fd5b50610217806100206000396000f3fe608060405234801561001057600080fd5b50600436106100415760003560e01c806364371977146100465780639507d39a146100f5578063f4c714b414610124575b600080fd5b6100f36004803603604081101561005c57600080fd5b8135919081019060408101602082013564010000000081111561007e57600080fd5b82018360208201111561009057600080fd5b803590602001918460018302840111640100000000831117156100b257600080fd5b91908080601f016020809104026020016040519081016040528093929190818152602001838380828437600092019190915250929550610141945050505050565b005b6101126004803603602081101561010b57600080fd5b50356101be565b60408051918252519081900360200190f35b6101126004803603602081101561013a57600080fd5b50356101d0565b806040516020018082805190602001908083835b602083106101745780518252601f199092019160209182019101610155565b51815160209384036101000a60001901801990921691161790526040805192909401828103601f190183528452815191810191909120600097885290879052919095205550505050565b60009081526020819052604090205490565b6000602081905290815260409020548156fea265627a7a723158202dae8041a58919727b1320a4181df81471e5cfdfeb44552da4b401d1693894b964736f6c634300050c0032",
  "source": "pragma solidity >=0.4.16 <0.7.0;\n\ncontract SimpleStorage {\n    \n    mapping(uint => bytes32) public files;\n\n    function set(uint file_name,string memory text) public {\n         files[file_name] = keccak256(abi.encodePacked(text));\n    }\n\n    function get(uint file_name) public view returns (bytes32) {\n        return files[file_name];\n    }\n}",
  "sourcePath": "/home/gins/Learning/Ethereum/Sample-Ethereum/ethereum/contracts/SimpleStorage.sol",
  "compiler": {
    "name": "solc",
    "version": "0.5.12+commit.7709ece9.Emscripten.clang"
  },
  "schemaVersion": "3.0.20",
  "updatedAt": "2020-05-15T19:04:10.927Z",
  "networkType": "ethereum",
  "devdoc": {
    "methods": {}
  },
  "userdoc": {
    "methods": {}
  }
}