{
  "contractName": "SimpleStorage",
  "abi": [
    {
      "constant": true,
      "inputs": [
        {
          "internalType": "bytes32",
          "name": "",
          "type": "bytes32"
        }
      ],
      "name": "files",
      "outputs": [
        {
          "internalType": "bytes32",
          "name": "",
          "type": "bytes32"
        }
      ],
      "payable": false,
      "stateMutability": "view",
      "type": "function"
    },
    {
      "constant": false,
      "inputs": [
        {
          "internalType": "bytes32",
          "name": "file_name",
          "type": "bytes32"
        },
        {
          "internalType": "string",
          "name": "text",
          "type": "string"
        }
      ],
      "name": "set",
      "outputs": [],
      "payable": false,
      "stateMutability": "nonpayable",
      "type": "function"
    },
    {
      "constant": true,
      "inputs": [
        {
          "internalType": "bytes32",
          "name": "file_name",
          "type": "bytes32"
        }
      ],
      "name": "get",
      "outputs": [
        {
          "internalType": "bytes32",
          "name": "",
          "type": "bytes32"
        }
      ],
      "payable": false,
      "stateMutability": "view",
      "type": "function"
    }
  ],
  "bytecode": "0x608060405234801561001057600080fd5b50610217806100206000396000f3fe608060405234801561001057600080fd5b50600436106100415760003560e01c80638eaa6ac01461004657806398c9adff14610075578063b480003314610092575b600080fd5b6100636004803603602081101561005c57600080fd5b5035610141565b60408051918252519081900360200190f35b6100636004803603602081101561008b57600080fd5b5035610153565b61013f600480360360408110156100a857600080fd5b813591908101906040810160208201356401000000008111156100ca57600080fd5b8201836020820111156100dc57600080fd5b803590602001918460018302840111640100000000831117156100fe57600080fd5b91908080601f016020809104026020016040519081016040528093929190818152602001838380828437600092019190915250929550610165945050505050565b005b60009081526020819052604090205490565b60006020819052908152604090205481565b806040516020018082805190602001908083835b602083106101985780518252601f199092019160209182019101610179565b51815160209384036101000a60001901801990921691161790526040805192909401828103601f19018352845281519181019190912060009788529087905291909520555050505056fea265627a7a72315820ab0a456994346ecf99e7b95ef99b2c506e323cf97c4a6e3c11cf3ad4d7b1324b64736f6c634300050c0032",
  "source": "pragma solidity >=0.4.16 <0.7.0;\n\ncontract SimpleStorage {\n    \n    mapping(bytes32 => bytes32) public files;\n\n    function set(bytes32 file_name,string memory text) public {\n         files[file_name] = keccak256(abi.encodePacked(text));\n    }\n\n    function get(bytes32 file_name) public view returns (bytes32) {\n        return files[file_name];\n    }\n}",
  "sourcePath": "/home/gins/Learning/Ethereum/Sample-Ethereum/ethereum/contracts/SimpleStorage.sol",
  "compiler": {
    "name": "solc",
    "version": "0.5.12+commit.7709ece9.Emscripten.clang"
  },
  "schemaVersion": "3.0.20",
  "updatedAt": "2020-05-15T20:48:43.907Z",
  "networkType": "ethereum",
  "devdoc": {
    "methods": {}
  },
  "userdoc": {
    "methods": {}
  }
}