{
  "contractName": "SimpleStorage",
  "abi": [
    {
      "constant": true,
      "inputs": [
        {
          "internalType": "bytes32",
          "name": "",
          "type": "bytes32"
        }
      ],
      "name": "files",
      "outputs": [
        {
          "internalType": "string",
          "name": "",
          "type": "string"
        }
      ],
      "payable": false,
      "stateMutability": "view",
      "type": "function"
    },
    {
      "constant": false,
      "inputs": [
        {
          "internalType": "bytes32",
          "name": "file_name",
          "type": "bytes32"
        },
        {
          "internalType": "string",
          "name": "text",
          "type": "string"
        }
      ],
      "name": "set",
      "outputs": [],
      "payable": false,
      "stateMutability": "nonpayable",
      "type": "function"
    },
    {
      "constant": true,
      "inputs": [
        {
          "internalType": "bytes32",
          "name": "file_name",
          "type": "bytes32"
        }
      ],
      "name": "get",
      "outputs": [
        {
          "internalType": "string",
          "name": "",
          "type": "string"
        }
      ],
      "payable": false,
      "stateMutability": "view",
      "type": "function"
    }
  ],
  "bytecode": "0x608060405234801561001057600080fd5b506103cf806100206000396000f3fe608060405234801561001057600080fd5b50600436106100415760003560e01c80638eaa6ac01461004657806398c9adff146100d8578063b4800033146100f5575b600080fd5b6100636004803603602081101561005c57600080fd5b50356101a4565b6040805160208082528351818301528351919283929083019185019080838360005b8381101561009d578181015183820152602001610085565b50505050905090810190601f1680156100ca5780820380516001836020036101000a031916815260200191505b509250505060405180910390f35b610063600480360360208110156100ee57600080fd5b5035610243565b6101a26004803603604081101561010b57600080fd5b8135919081019060408101602082013564010000000081111561012d57600080fd5b82018360208201111561013f57600080fd5b8035906020019184600183028401116401000000008311171561016157600080fd5b91908080601f0160208091040260200160405190810160405280939291908181526020018383808284376000920191909152509295506102dd945050505050565b005b6000818152602081815260409182902080548351601f60026000196101006001861615020190931692909204918201849004840281018401909452808452606093928301828280156102375780601f1061020c57610100808354040283529160200191610237565b820191906000526020600020905b81548152906001019060200180831161021a57829003601f168201915b50505050509050919050565b600060208181529181526040908190208054825160026001831615610100026000190190921691909104601f8101859004850282018501909352828152929091908301828280156102d55780601f106102aa576101008083540402835291602001916102d5565b820191906000526020600020905b8154815290600101906020018083116102b857829003601f168201915b505050505081565b60008281526020818152604090912082516102fa928401906102ff565b505050565b828054600181600116156101000203166002900490600052602060002090601f016020900481019282601f1061034057805160ff191683800117855561036d565b8280016001018555821561036d579182015b8281111561036d578251825591602001919060010190610352565b5061037992915061037d565b5090565b61039791905b808211156103795760008155600101610383565b9056fea265627a7a72315820de2bf35592751fafb4249a941a0bbe19ecfe1178e9399c797ef39aa15b5369d164736f6c634300050c0032",
  "source": "pragma solidity >=0.4.16 <0.7.0;\n\ncontract SimpleStorage {\n    \n    mapping(bytes32 => string) public files;\n\n    function set(bytes32 file_name,string memory text) public {\n         files[file_name] = text;\n    }\n\n    function get(bytes32 file_name) public view returns ( string memory) {\n        return files[file_name];\n    }\n}",
  "sourcePath": "/home/gins/Learning/Ethereum/Sample-Ethereum/ethereum/contracts/SimpleStorage.sol",
  "compiler": {
    "name": "solc",
    "version": "0.5.12+commit.7709ece9.Emscripten.clang"
  },
  "schemaVersion": "3.0.20",
  "updatedAt": "2020-05-16T12:52:56.153Z",
  "networkType": "ethereum",
  "devdoc": {
    "methods": {}
  },
  "userdoc": {
    "methods": {}
  }
}